S01B000052544F535F416C61726D5F5379735F52544F532E7372656330
S11300000C942A000C9447000C9447000C9447006D
S11300100C9447000C9447000C9447000C9412076E
S11300200C9447000C9447000C9447000C94470030
S11300300C9447000C9447000C9447000C94470020
S11300400C9447000C9447000C9447000C94470010
S11300500C94470011241FBECFE5D8E0DEBFCDBF0E
S113006010E0A0E6B0E0E0E9FDE102C005900D92E9
S1130070A23EB107D9F725E0A2EEB0E001C01D927F
S1130080A035B207E1F70E9491040C94C60E0C94BB
S113009000000F931F93CF93DF93EC010E94660B34
S11300A08091E20081111DC0E7EEF0E08CEE90E05B
S11300B09183808313821282E3EEF0E087EE93E073
S11300C09383828311821082ABEEB0E014969C93EA
S11300D08E9313971296FC93EE93119781E080937D
S11300E0E200209709F45FC09E012C5F3F4F2396E6
S11300F0C63ED34008F05AC0E091E700F091E80012
S1130100A7EEB0E002C0DF01FC0182819381821777
S1130110930720F4808191810097A9F7C0E0E33E22
S1130120FC0709F446C0CD91DC9111978E010C5F58
S11301301F4F808191818D939C9382819381821B37
S1130140930B8930910510F1BF01620F731FDB011E
S113015013969C938E9312973383228312964D9118
S11301605C91139787EE90E001C0CD01EC01A8816A
S1130170B98112962D913C91139724173507A8F352
S1130180EB01B983A883DC016D937C9380916000BB
S11301909091610022813381821B930B90936100C3
S11301A08093600008C000E010E005C000E010E0AB
S11301B002C000E010E00E94270CC801DF91CF913B
S11301C01F910F9108950F931F93CF93DF9300977F
S11301D041F1EC018C01045011090E94660BF801F5
S11301E042815381A7EEB0E001C0DF01ED91FC91A3
S11301F011972281338124173507B8F32497F983A3
S1130200E8830D931C9320916000309161008A81F2
S11302109B81820F931F90936100809360000E94E2
S1130220270CDF91CF911F910F910895CF92DF9208
S1130230EF92FF920F931F93CF93DF9300D000D0E0
S1130240CDB7DEB704E810E00F2EFCE8CF2EF0E0C7
S1130250DF2EF02DEE24E394F12CC701F801008089
S113026002C0880F991F0A94E2F78B838C8331971D
S1130270908199838A83CE0101960E94CF040E5FF8
S11302801F4F0C151D0549F70CE710E00F2EF4E87D
S1130290CF2EF0E0DF2EF02DEE24E394F12C1B8220
S11302A0C701F801008002C0880F991F0A94E2F781
S11302B08C833197908199838A83CE0101960E9421
S11302C0CF040E5F1F4F0C151D0549F70F900F90BB
S11302D00F900F90DF91CF911F910F91FF90EF90AE
S11302E0DF90CF900895EF92FF920F931F93CF93D7
S11302F0DF93CDB7DEB729970FB6F894DEBF0FBEF4
S1130300CDBF19821A821B828FEF8C831982898157
S1130310843008F0E8C001E010E0FF24F39468940E
S1130320EE24E2F8898190E0039683709078992313
S113033024F401978C6F9F6F0196880F991FFC011D
S1130340ED57FF4F80818F83898190E003968370FE
S11303509078992324F401978C6F9F6F0196880FEE
S1130360991FFC01ED57FF4FC801018002C0880F9F
S1130370991F0A94E2F78887898190E00396837035
S11303809078992324F401978C6F9F6F0196880FBE
S1130390991FFC01ED57FF4FC801018002C0880F6F
S11303A0991F0A94E2F78987CE0107960E942E05C9
S11303B0E981F0E0EE0FFF1FED57FF4F80818F833F
S11303C0E981F0E0EE0FFF1FED57FF4FC8010180F8
S11303D002C0880F991F0A94E2F788871986CE0114
S11303E007960E942E0500001B821A828A8184309F
S11303F028F5EA81F0E0EE0FFF1FE558FF4F8081FA
S11304008D83EA81F0E0EE0FFF1FE558FF4F8181F5
S11304108E83CE0105960E9464053A812B818F2537
S113042090E002C0880F991F3A95E2F7822B8B83E4
S11304308A818F5F8A838A818430D8F21A828A8182
S1130440843008F049C08B812A8190E0A80102C061
S1130450440F551F2A95E2F784179507B1F58A8151
S1130460E981F0E054E0859FE00DF11D1124E55988
S1130470FF4F80818C83E981F0E0EE0FFF1FED5781
S1130480FF4F80818F83E981F0E0EE0FFF1FED576E
S1130490FF4FC801018002C0880F991F0A94E2F738
S11304A08887E981F0E0EE0FFF1FED57FF4FC80189
S11304B0018002C0880F991F0A94E2F78987CE0150
S11304C007960E942E05EA82E9828A818F5F8A83D9
S11304D08A81843008F4B7CF89818F5F89838981C9
S11304E0843008F41FCF8C8129960FB6F894DEBFB0
S11304F00FBECDBFDF91CF911F910F91FF90EF9071
S11305000895C29A85E08A95F1F70000C2988FE6B3
S113051097E10197F1F700C000000895CF93C82F29
S1130520882314F4C69A01C0C698C6FF02C0C59AAF
S113053001C0C598C5FF02C0C49A01C0C498C4FFD5
S113054002C0C39A01C0C3980E948102C3FF02C0C3
S1130550C69A01C0C698C2FF02C0C59A01C0C59818
S1130560C1FF02C0C49A01C0C498C0FF02C0C39AAC
S113057001C0C3980E948102CF910895C098C19888
S11305800E948E020895811105C08FE7860F0E9494
S1130590BE020895813021F48FEB860F0E94BE02C3
S11305A00895C09AC1980E948E020895CF93DF9354
S11305B0EC018881882331F021960E94D10289912F
S11305C08111FBCFDF91CF9108958FE295E70197D9
S11305D0F1F700C00000B89AB99ABA9ABE9ABD9AC7
S11305E0BC9ABB9A83E30E94BE0282E30E94BE02CD
S11305F088E20E94BE028CE00E94BE0281E00E945A
S1130600BE020895FC010396928381832FEF3FEF8E
S11306103483238396838583908787831082089508
S1130620FC01118610860895CF93DF939C01FB0192
S1130630DC011196CD91DC911297D383C2838C8116
S11306409D81958384838C819D81DC0113967C93A9
S11306506E9312977D836C8331872087F9018081A3
S11306608F5F8083DF91CF910895CF93DF93EB0168
S1130670488159814F3F2FEF520721F4FC01A78194
S1130680B0850DC0DC01139601C0DF011296ED9117
S1130690FC9113972081318142175307B0F71296CA
S11306A0ED91FC911397FB83EA83D583C483BD83C7
S11306B0AC831396DC93CE93129799878887FC01B9
S11306C020812F5F2083DF91CF910895CF93DF9313
S11306D0FC01A085B185C281D381848195819D83EC
S11306E08C83C481D581828193819B838A83119673
S11306F0CD91DC911297CE17DF0731F48C819D8167
S113070012969C938E931197118610868C9181502A
S11307108C93DF91CF910895CF93DF931F92CDB740
S1130720DEB719820E94160181E00E94BE028BE8A6
S113073090E00E94D6022FEF89E698E12150804094
S11307409040E1F700C000001FEF0E94730189830D
S11307508F3F71F01F3F61F420E040E050E0BE01A4
S11307606F5F7F4F8091DF049091E0040E944708FF
S1130770198182E390E00E94A60CE7CFCF93DF9328
S11307801F92CDB7DEB719820E94E50281E00E9474
S1130790BE0286E990E00E94D6022FEF89E698E136
S11307A0215080409040E1F700C0000010E000E0DC
S11307B06894FF24F1F820E048E853E1BE016F5F3C
S11307C07F4F8091DF049091E0040E94E80881301B
S11307D009F05CC01130A9F020F0123009F44CC0CB
S11307E0EACF8981833239F781E00E94BE028EE923
S11307F090E00E94D60261E081E00E94C30211E011
S1130800DACF8981833279F0833401F5002399F2B8
S1130810015080E10E94BE0280E20E94D10280E188
S11308200E94BE02C8CFE02FF0E0ED52FB4F1082D1
S113083020E040E050E060E070E08091DD049091C1
S1130840DE040E9447081F2D00E0B5CF093008F0F0
S1130850B2CFE02FF0E0ED52FB4F80830F5F0E9498
S1130860D10288EC90E00E94A60C80E10E94BE02B6
S11308708AE20E94D1029FCF81E00E94BE0286E9F3
S113088090E00E94D60210E000E095CF112309F415
S113089092CF81E00E94BE0286E990E00E94D602D7
S11308A010E000E088CF20E040E050E060E070E03D
S11308B08091DD049091DE040E94E80881E00E94AA
S11308C0BE0288EA90E00E94D6022FEF89E698E102
S11308D0215080409040E1F700C0000020E04FEF3D
S11308E05FEF60E070E08091DD049091DE040E948F
S11308F0E80862E670E083ED94E00E94BD0E892B67
S113090041F481E00E94BE028EEA90E00E94D60289
S1130910E5CF81E00E94BE028DEB90E00E94D602FA
S1130920DDCF0E94E5028BEC90E00E94D60240E00D
S113093061E08AE00E941A089093E0048093DF0447
S113094043E060E081E00E941A089093DE04809303
S1130950DD04E12CF12C01E020E030E048EC50E033
S113096061ED70E08EEB93E00E942B0A02E020E040
S113097030E048EC50E065ED70E08CE893E00E94D4
S11309802B0A03E020E030E048EC50E068EA70E035
S113099083E594E00E942B0A0E943C0BFFCFFC01EC
S11309A080818130E1F030F0823071F1833009F4DC
S11309B040C008952AB38181982F9095292392816C
S11309C09823822F892B8ABB2BB38181982F9095F2
S11309D0292393819823822F892B8BBB089527B3D6
S11309E08181982F9095292392819823822F892B96
S11309F087BB28B38181982F9095292393819823CD
S1130A00822F892B88BB089524B38181982F9095D8
S1130A10292392819823822F892B84BB25B381813A
S1130A20982F9095292393819823822F892B85BB16
S1130A30089521B38181982F909529239281982339
S1130A40822F892B81BB22B38181982F90952923F2
S1130A5093819823822F892B82BB0895FC01908176
S1130A60913089F028F09230C9F0933011F1089553
S1130A702BB38181982F9095292392819823822FDB
S1130A80892B8BBB089528B38181982F90952923B6
S1130A9092819823822F892B88BB089525B3818165
S1130AA0982F9095292392819823822F892B85BB97
S1130AB0089522B38181982F9095292392819823B8
S1130AC0822F892B82BB0895FC0190819130C9F05B
S1130AD028F0923049F19330D1F14CC029B34181CF
S1130AE081E090E0042E02C0880F991F0A94E2F777
S1130AF030E08223932302C0969587954A95E2F7C6
S1130B00089526B3418181E090E0042E02C0880F4D
S1130B10991F0A94E2F730E08223932302C096954A
S1130B2087954A95E2F7089523B3418181E090E0E7
S1130B30042E02C0880F991F0A94E2F730E0822342
S1130B40932302C0969587954A95E2F7089520B3BA
S1130B50418181E090E0042E02C0880F991F0A941D
S1130B60E2F730E08223932302C0969587954A9555
S1130B70E2F7089580E0089531E1FC013083319774
S1130B8022E220833197A3E3A083319760833197D6
S1130B90708331971082319760E8608331971082B7
S1130BA0319762E06083319763E06083319764E05A
S1130BB06083319765E06083319766E060833197A5
S1130BC067E06083319768E06083319769E0608310
S1130BD0319760E1608331973083319732E130831C
S1130BE0319733E13083319734E13083319735E104
S1130BF03083319736E13083319737E13083319751
S1130C0038E13083319739E13083319730E23083F2
S1130C10319731E2308331972083319723E2208367
S1130C203197408331975083319726E2208331975F
S1130C3027E22083319728E22083319729E2208319
S1130C40319720E32083319721E320838697089509
S1130C501BBC8CE78ABD8BE08EBD89B7806189BFE0
S1130C60A0914E05B0914F05CD91CDBFDD91DEBF72
S1130C70FF91EF91DF91CF91BF91AF919F918F91B0
S1130C807F916F915F914F913F912F911F910F91A0
S1130C90FF90EF90DF90CF90BF90AF909F908F9098
S1130CA07F906F905F904F903F902F901F900F9088
S1130CB00FBE0F90089581E008950F920FB6F89437
S1130CC00F921F9211242F923F924F925F926F9234
S1130CD07F928F929F92AF92BF92CF92DF92EF92C8
S1130CE0FF920F931F932F933F934F935F936F93B1
S1130CF07F938F939F93AF93BF93CF93DF93EF93A0
S1130D00FF93A0914E05B0914F050DB60D920EB60E
S1130D100D920E94F70CA0914E05B0914F05CD9114
S1130D20CDBFDD91DEBFFF91EF91DF91CF91BF91F8
S1130D30AF919F918F917F916F915F914F913F916F
S1130D402F911F910F91FF90EF90DF90CF90BF9064
S1130D50AF909F908F907F906F905F904F903F9057
S1130D602F901F900F900FBE0F9008950F920FB603
S1130D70F8940F921F9211242F923F924F925F92F8
S1130D806F927F928F929F92AF92BF92CF92DF9297
S1130D90EF92FF920F931F932F933F934F935F9381
S1130DA06F937F938F939F93AF93BF93CF93DF936F
S1130DB0EF93FF93A0914E05B0914F050DB60D92A0
S1130DC00EB60D920E946C0B81110E94F70CA0913B
S1130DD04E05B0914F05CD91CDBFDD91DEBFFF91A2
S1130DE0EF91DF91CF91BF91AF919F918F917F91BF
S1130DF06F915F914F913F912F911F910F91FF90B0
S1130E00EF90DF90CF90BF90AF909F908F907F90A6
S1130E106F905F904F903F902F901F900F900FBE58
S1130E200F9008950E94B60618950F931F93CF93C1
S1130E30DF93EC01042F1A8D8C8D81110CC08881F5
S1130E409981892B09F044C08A819B810E94620E9A
S1130E501B821A8244C0411118C0482F50E08C8173
S1130E609D810E94B40E2C8D8C819D81820F911DD9
S1130E709D838C832A813B818217930758F1888153
S1130E8099819D838C8380E02AC0482F50E08E8115
S1130E909F810E94B40E8C8D90E09195819591096B
S1130EA02E813F81280F391F3F832E83488159812A
S1130EB02417350730F42A813B81820F931F9F83C7
S1130EC08E83023049F4112349F0115080E007C0A9
S1130ED080E005C080E003C080E001C080E01F5FC7
S1130EE01A8FDF91CF911F910F910895FC01448DCA
S1130EF04423A9F050E026813781240F351F37831E
S1130F002683828193812817390720F0808191817B
S1130F1097838683CB01668177810E94B40E0895FE
S1130F20EF92FF920F931F93CF938C010FB6F89417
S1130F300F92FC01C68D1C16ACF48189811106C088
S1130F4011C0F8019189911105C00CC07801F1E13B
S1130F50EF0EF11CC7010E94700D81110E94FC0D5F
S1130F60C15079F78FEFF801868F0F900FBE0FB63F
S1130F70F8940F92C58D1C16ACF48085811106C0BF
S1130F8011C0F8019085911105C00CC07801F8E0FA
S1130F90EF0EF11CC7010E94700D81110E94FC0D1F
S1130FA0C15079F78FEFF801858F0F900FBECF9165
S1130FB01F910F91FF90EF900895CF93DF93EC0171
S1130FC00FB6F8940F92488159812C8D30E07B8DB7
S1130FD0729FC001739F900D1124FA01E80FF91F4D
S1130FE0FB83EA831A8E5D834C83821B930B840FED
S1130FF0951F9F838E838FEF8D8F8E8F61110CC011
S11310008885882389F0CE0108960E94700D882374
S113101059F00E945D0608C0CE0108960E940203A2
S1131020CE0141960E9402030F900FBE81E0DF9132
S1131030CF9108950F931F93CF93DF93082F162F0B
S11310406623C1F0869FC00111244F960E94490077
S1131050EC01009741F415C00B8F1C8F61E0CE01A9
S11310600E94DD070EC04F9699838883F5CFD983FC
S1131070C883F2CF8FE190E00E944900EC01892BF4
S1131080B1F7CE01DF91CF911F910F9108959F92F7
S1131090AF92BF92CF92DF92EF92FF920F931F9382
S11310A0CF93DF9300D000D01F92CDB7DEB78C0171
S11310B06B015D834C83A22EB12C992493947C0103
S11310C088E0E80EF11C0FB6F8940F92F801328D07
S11310D0938D391718F0F2E0AF1219C04A2DB601FA
S11310E0C8010E941507F8019189992349F0C801A4
S11310F041960E94700D882331F00E945D0603C062
S113110081110E945D060F900FBE81E050C0EC81FA
S1131110FD81EF2B21F40F900FBE80E048C0B11089
S113112005C0CE0101960E94B80DB92C0F900FBED8
S11311300E94660B0FB6F8940F92F801858D8F3FCD
S113114009F4158EF801868D8F3F09F4168E0F90E1
S11311500FBEBE016C5F7F4FCE0101960E94C30D8E
S113116081111FC00FB6F8940F92F801928D0F9061
S11311700FBE838D98130FC06C817D81C7010E94BF
S11311805D0DC8010E9490070E94270C81119BCF1E
S11311900E945D0698CFC8010E9490070E94270C08
S11311A092CFC8010E9490070E94270C80E00F9004
S11311B00F900F900F900F90DF91CF911F910F918F
S11311C0FF90EF90DF90CF90BF90AF909F900895E5
S11311D08F929F92AF92BF92CF92DF92EF92FF9243
S11311E00F931F93CF93DF9300D000D01F92CDB7FE
S11311F0DEB78C015B015D834C83822EE12C992444
S113120093946C0181E1C80ED11C0FB6F8940F922F
S1131210F801F28CFF2091F1C680D780B501C80196
S11312200E947607811019C0FA94F801F28E808129
S11312309181892B29F40E94A20EF8019383828361
S1131240F80180858823B1F0C80108960E94700DCA
S1131250882381F00E945D060DC0F801D782C68202
S11312608189882339F0C80141960E94700D81114B
S11312700E945D060F900FBE81E064C04C815D81C9
S1131280452B21F40F900FBE80E05CC0E11005C037
S1131290CE0101960E94B80DE92C0F900FBE0E945A
S11312A0660B0FB6F8940F92F801858D8F3F09F401
S11312B0158EF801968D9F3F09F4168E0F900FBE80
S11312C0BE016C5F7F4FCE0101960E94C30D811158
S11312D02BC00FB6F8940F92F801828D0F900FBEB9
S11312E081111CC080819181892B49F40FB6F89437
S11312F00F92828193810E94000E0F900FBE6C8129
S11313007D81C6010E945D0DC8010E9490070E9464
S1131310270C81117ACF0E945D0677CFC8010E9405
S113132090070E94270C71CFC8010E9490070E9469
S1131330270C0FB6F8940F92F801828D0F900FBE10
S1131340811163CF0F900F900F900F900F90DF914A
S1131350CF911F910F91FF90EF90DF90CF90BF90AE
S1131360AF909F908F900895E0910D05F0910E0538
S11313708081811107C08FEF9FEF9093E5048093E4
S1131380E4040895E0910D05F0910E050580F681C1
S1131390E02D0680F781E02D828193819093E5040E
S11313A08093E4040895FF920F931F93CF93DF93E8
S11313B0EC01F62E0091EC041091ED0480914E05A1
S11313C090914F0502960E946603CF3F8FEFD80796
S11313D069F4FF2059F060914E0570914F056E5FDE
S11313E07F4F8FEE94E00E9414032FC0C00FD11FD3
S11313F0E0914E05F0914F05D383C283C017D10706
S113140068F460914E0570914F0580910B059091A1
S11314100C056E5F7F4F0E94350317C060914E0527
S113142070914F0580910D0590910E056E5F7F4F71
S11314300E9435038091E4049091E504C817D9070C
S113144020F4D093E504C093E404DF91CF911F917D
S11314500F91FF9008954F925F926F927F928F92B7
S11314609F92AF92BF92CF92DF92EF92FF920F932F
S11314701F93CF93DF934C016B015A012901CA01D9
S11314800E9449003C01892B09F4E4C08AE290E0FF
S11314900E944900EC01892B71F0788E6F8A81E0FB
S11314A0A81AB1086A0C7B1CD6018C91898F8C9187
S11314B0811105C018C0C3010E94E300CBC0AE0176
S11314C0465E5F4FF6013196BAE0CB0ED11CCF01D8
S11314D02191DA012D93AD01DC018C91882319F05F
S11314E0EC15FD05A1F71AA2053008F004E00E8BF7
S11314F00BA31CA26E01B2E0CB0ED11CC6010E944C
S11315001003CE010C960E941003D987C88785E08A
S113151090E0801B91099D878C87DB8BCA8B1DA271
S11315201EA21FA218A619A6A201B401C3010E94FB
S1131530BC0599838883E114F10419F0F701D18380
S1131540C0830FB6F8940F928091EE048F5F80935E
S1131550EE0480914E0590914F05892BD1F5D093DF
S11315604F05C0934E058091EE04813009F041C0CF
S113157001E215E00F2EFEE4EF2EF5E0FF2EF02D34
S1131580C8010E940203075F1F4F0E151F05C1F714
S113159088E195E00E9402038FE095E00E94020337
S11315A082E095E00E94020389EF94E00E94020326
S11315B08FEE94E00E94020388E195E090930E057B
S11315C080930D058FE095E090930C0580930B05B7
S11315D010C08091EA0481110CC0E0914E05F09195
S11315E04F0596898E89891720F0D0934F05C093B3
S11315F04E058091E6048F5F8093E6048E89909176
S1131600EB04981710F48093EB0490E09C01220FF4
S1131610331F220F331F220F331F820F931FB60174
S11316208F5D9A4F0E9414030F900FBE8091EA04BD
S1131630882361F0E0914E05F0914F0596898E89DB
S1131640981730F40E945D0681E005C081E003C074
S113165081E001C08FEFDF91CF911F910F91FF9037
S1131660EF90DF90CF90BF90AF909F908F907F903E
S11316706F905F904F900895EF92FF920F930F2E0B
S1131680F2EEEF2EF4E0FF2EF02D00E020E030E04B
S113169044E650E06CED70E08AEB9CE00E942B0A7B
S11316A0813081F4F8948FEF9FEF9093E504809359
S11316B0E40481E08093EA041092ED041092EC04B7
S11316C00E9428060F91FF90EF9008958091E10405
S11316D08F5F8093E1040895CF92DF92EF92FF929F
S11316E00F931F93CF93DF938091E104811199C0ED
S11316F0E090EC04F090ED048FEFE81AF80AF09211
S1131700ED04E092EC04E114F104B9F480910D05C8
S113171090910E0520910B0530910C0530930E0528
S113172020930D0590930C0580930B058091E7049D
S11317308F5F8093E7040E94B4098091E404909140
S1131740E504E816F90610F4D12C53C0D12CCC24AE
S1131750C394E0910D05F0910E059081911107C09D
S11317608FEF9FEF9093E5048093E40442C0E091EF
S11317700D05F0910E050580F681E02DC681D78117
S11317802A813B81E216F30628F43093E504209382
S1131790E4042FC08E010E5F1F4FC8010E94660330
S11317A08C899D89892B21F0CE010C960E946603B9
S11317B02E898091EB04821710F42093EB0430E01F
S11317C0C901880F991F880F991F880F991F820FCD
S11317D0931FB8018F5D9A4F0E941403E0914E0548
S11317E0F0914F059E898689981708F4B2CFDC2CB6
S11317F0B0CFE0914E05F0914F05868990E0FC0151
S1131800EE0FFF1FEE0FFF1FEE0FFF1F8E0F9F1F28
S1131810FC01EF5DFA4F8081823048F0DD24D394DF
S113182006C08091E9048F5F8093E904D12C8091F4
S1131830E804882311F0DD24D3948D2DDF91CF911A
S11318401F910F91FF90EF90DF90CF900895DF925A
S1131850EF92FF920F931F93CF93DF930FB6F894F9
S11318600F928091E10481508093E1048091E1041E
S113187081115FC08091EE04811133C05DC0D70136
S11318801596ED91FC911697C681D781CE010C96E1
S11318900E9466038E010E5F1F4FC8010E946603FB
S11318A02E898091EB04821710F42093EB0430E02E
S11318B0C901880F991F880F991F880F991F820FDC
S11318C0931FB8018F5D9A4F0E941403E0914E0557
S11318D0F0914F059E898689981768F0D092E804A4
S11318E00AC0C0E0D0E00F2EF2E0EF2EF5E0FF2EAC
S11318F0F02DDD24D394F70180818111C0CFCD2B4D
S113190011F00E94B409C091E904CC2351F0D1E054
S11319100E946C0B8111D093E804C150C9F7109256
S1131920E9048091E804882331F00E945D0681E097
S113193003C080E001C080E00F900FBEDF91CF9123
S11319401F910F91FF90EF90DF900895CF93DF9355
S1131950EC01892B51F00E94660B60E0CE010E94DD
S1131960D3090E94270C811102C00E945D06DF91F9
S1131970CF91089509EF14E00F2EF1E2EF2EF5E078
S1131980FF2EF02D29C00E94660BD801CC910E9435
S1131990270CCC2309F10FB6F8940F92D8011596B1
S11319A0ED91FC911697C681D781CE0102960E94D3
S11319B066038091EE0481508093EE048091F804D4
S11319C081508093F8040F900FBE8F89988D0E94E8
S11319D0E300CE010E94E3008091F8048111D3CF8B
S11319E0F70180818230C0F30E945D06F5CF8091BB
S11319F0E104882321F081E08093E80408951092A3
S1131A00E8042091EB04822F90E0FC01EE0FFF1F0D
S1131A10EE0FFF1FEE0FFF1FE80FF91FEF5DFA4FE8
S1131A203081311111C02150822F90E0FC01EE0F62
S1131A30FF1FEE0FFF1FEE0FFF1FE80FF91FEF5DF3
S1131A40FA4F3081332379F3AC01440F551F440F0F
S1131A50551F440F551F480F591FDA01AF5DBA4F88
S1131A601196ED91FC9112970280F381E02D12966C
S1131A70FC93EE9311974C5D5A4FE417F50729F444
S1131A8042815381FD0152834183FC01EE0FFF1F0C
S1131A90EE0FFF1FEE0FFF1F8E0F9F1FFC01EF5D68
S1131AA0FA4F0180F281E02D8681978190934F0552
S1131AB080934E052093EB040895CF93DF93EB01BD
S1131AC020914E0530914F05B901645F7F4F0E940C
S1131AD0350361E0CE010E94D309DF91CF910895CF
S1131AE00F931F93CF93DF93DC011596ED91FC9137
S1131AF01697C681D7818E01045F1F4FC8010E94CB
S1131B0066038091E10481111CC00A501109C801C7
S1131B100E9466032E898091EB04821710F42093AF
S1131B20EB0430E0C901880F991F880F991F880FB3
S1131B30991F820F931FB8018F5D9A4F0E9414035F
S1131B4005C0B80182E095E00E941403E0914E05BF
S1131B50F0914F059E898689891720F481E080934E
S1131B60E80401C080E0DF91CF911F910F910895A7
S1131B702091E704FC0120832091EC043091ED04D2
S1131B803283218308950FB6F8940F924091EC04A8
S1131B905091ED04DB012D913C912F3FBFEF3B07AA
S1131BA019F1E091E704DC01FC91FE1739F011967C
S1131BB0ED91FC9112974E175F07C0F4DC0111966A
S1131BC0ED91FC911297DA01AE1BBF0BA217B3077C
S1131BD078F4DB01E41BF50B2E0F3F1F2D933C9390
S1131BE00E94B80D80E005C080E003C081E001C020
S1131BF081E00F900FBE089581E08093E80408957A
S1131C000F931F93CF93DF93FC01892B09F455C0E5
S1131C102689A0914E05B0914F0556968C912817B0
S1131C2008F04BC084859585992364F0A0914E05F6
S1131C30B0914F0556963C9185E090E0831B910945
S1131C409587848730E0C901880F991F880F991FF1
S1131C50880F991F280F391F2F5D3A4F828593856E
S1131C608217930719F58F01EF012296CE010E9486
S1131C706603E0914E05F0914F052689F801268B05
S1131C808091EB04821710F42093EB0430E0C90137
S1131C90880F991F880F991F880F991F820F931F10
S1131CA0BE018F5D9A4F0E94140307C0A0914E0598
S1131CB0B0914F0556968C91868BDF91CF911F91F1
S1131CC00F9108950F931F93CF93DF93FC01892BFA
S1131CD079F184A1815084A3268993A1291751F114
S1131CE081112AC0EF018F010E5F1F4FC8010E94AE
S1131CF066032BA12E8B45E050E0421B51095D8702
S1131D004C878091EB04821710F42093EB0430E0AD
S1131D10C901880F991F880F991F880F991F820F77
S1131D20931FB8018F5D9A4F0E94140381E005C090
S1131D3080E003C080E001C080E0DF91CF911F917B
S1131D400F91089580914E0590914F05892B39F09C
S1131D50E0914E05F0914F0584A18F5F84A380919B
S1131D604E0590914F050895FB01DC0102C00190DE
S1131D700D9241505040D8F70895FB01DC018D913C
S1131D80019080190110D9F3990B0895F894FFCFAD
S1131D90E703313233343536373800373839413494
S1131DA0353642313233432A3023440304030503D6
S1131DB006030703000301030203036B65797061E3
S1131DC0645461736B0057656C636F6D650050619B
S1131DD07373776F72643A00636865636B00416381
S1131DE063657373206772616E7465640041636335
S1131DF06573732064656E6965640068656C6C6FF7
S1131E00004C4344004B65797061640049444C457F
S1051E100000CC
S9030000FC
